{
  "contractName": "Lottery",
  "abi": [
    {
      "inputs": [],
      "stateMutability": "nonpayable",
      "type": "constructor"
    },
    {
      "inputs": [],
      "name": "manager",
      "outputs": [
        {
          "internalType": "address",
          "name": "",
          "type": "address"
        }
      ],
      "stateMutability": "view",
      "type": "function",
      "constant": true
    },
    {
      "inputs": [
        {
          "internalType": "uint256",
          "name": "",
          "type": "uint256"
        }
      ],
      "name": "players",
      "outputs": [
        {
          "internalType": "address payable",
          "name": "",
          "type": "address"
        }
      ],
      "stateMutability": "view",
      "type": "function",
      "constant": true
    },
    {
      "inputs": [],
      "name": "winner",
      "outputs": [
        {
          "internalType": "address payable",
          "name": "",
          "type": "address"
        }
      ],
      "stateMutability": "view",
      "type": "function",
      "constant": true
    },
    {
      "stateMutability": "payable",
      "type": "receive",
      "payable": true
    },
    {
      "inputs": [],
      "name": "getBalance",
      "outputs": [
        {
          "internalType": "uint256",
          "name": "",
          "type": "uint256"
        }
      ],
      "stateMutability": "view",
      "type": "function",
      "constant": true
    },
    {
      "inputs": [],
      "name": "pickWinner",
      "outputs": [],
      "stateMutability": "nonpayable",
      "type": "function"
    },
    {
      "inputs": [],
      "name": "allPlayers",
      "outputs": [
        {
          "internalType": "address payable[]",
          "name": "",
          "type": "address[]"
        }
      ],
      "stateMutability": "view",
      "type": "function",
      "constant": true
    }
  ],
  "bytecode": "0x608060405234801561001057600080fd5b5033600160006101000a81548173ffffffffffffffffffffffffffffffffffffffff021916908373ffffffffffffffffffffffffffffffffffffffff160217905550610afd806100616000396000f3fe6080604052600436106100595760003560e01c806312065fe0146100da578063481c6a75146101055780635d495aea14610130578063b0ec809414610147578063dfbf53ae14610172578063f71d96cb1461019d576100d5565b366100d557662386f26fc10000341461007157600080fd5b6000339080600181540180825580915050600190039060005260206000200160009091909190916101000a81548173ffffffffffffffffffffffffffffffffffffffff021916908373ffffffffffffffffffffffffffffffffffffffff1602179055005b600080fd5b3480156100e657600080fd5b506100ef6101da565b6040516100fc91906106d1565b60405180910390f35b34801561011157600080fd5b5061011a610272565b604051610127919061072d565b60405180910390f35b34801561013c57600080fd5b50610145610298565b005b34801561015357600080fd5b5061015c6104e4565b6040516101699190610818565b60405180910390f35b34801561017e57600080fd5b50610187610572565b6040516101949190610849565b60405180910390f35b3480156101a957600080fd5b506101c460048036038101906101bf9190610895565b610598565b6040516101d19190610849565b60405180910390f35b6000600160009054906101000a900473ffffffffffffffffffffffffffffffffffffffff1673ffffffffffffffffffffffffffffffffffffffff163373ffffffffffffffffffffffffffffffffffffffff161461026c576040517f08c379a00000000000000000000000000000000000000000000000000000000081526004016102639061091f565b60405180910390fd5b47905090565b600160009054906101000a900473ffffffffffffffffffffffffffffffffffffffff1681565b600160009054906101000a900473ffffffffffffffffffffffffffffffffffffffff1673ffffffffffffffffffffffffffffffffffffffff163373ffffffffffffffffffffffffffffffffffffffff1614610328576040517f08c379a000000000000000000000000000000000000000000000000000000000815260040161031f9061091f565b60405180910390fd5b60036000805490501015610371576040517f08c379a00000000000000000000000000000000000000000000000000000000081526004016103689061098b565b60405180910390fd5b600061037b6105d7565b9050600080805490508261038f91906109da565b9050600081815481106103a5576103a4610a0b565b5b9060005260206000200160009054906101000a900473ffffffffffffffffffffffffffffffffffffffff16600260006101000a81548173ffffffffffffffffffffffffffffffffffffffff021916908373ffffffffffffffffffffffffffffffffffffffff160217905550600260009054906101000a900473ffffffffffffffffffffffffffffffffffffffff1673ffffffffffffffffffffffffffffffffffffffff166108fc6104546101da565b9081150290604051600060405180830381858888f1935050505015801561047f573d6000803e3d6000fd5b50600067ffffffffffffffff81111561049b5761049a610a3a565b5b6040519080825280602002602001820160405280156104c95781602001602082028036833780820191505090505b50600090805190602001906104df929190610611565b505050565b6060600080548060200260200160405190810160405280929190818152602001828054801561056857602002820191906000526020600020905b8160009054906101000a900473ffffffffffffffffffffffffffffffffffffffff1673ffffffffffffffffffffffffffffffffffffffff168152602001906001019080831161051e575b5050505050905090565b600260009054906101000a900473ffffffffffffffffffffffffffffffffffffffff1681565b600081815481106105a857600080fd5b906000526020600020016000915054906101000a900473ffffffffffffffffffffffffffffffffffffffff1681565b600044426000805490506040516020016105f393929190610a8a565b6040516020818303038152906040528051906020012060001c905090565b82805482825590600052602060002090810192821561068a579160200282015b828111156106895782518260006101000a81548173ffffffffffffffffffffffffffffffffffffffff021916908373ffffffffffffffffffffffffffffffffffffffff16021790555091602001919060010190610631565b5b509050610697919061069b565b5090565b5b808211156106b457600081600090555060010161069c565b5090565b6000819050919050565b6106cb816106b8565b82525050565b60006020820190506106e660008301846106c2565b92915050565b600073ffffffffffffffffffffffffffffffffffffffff82169050919050565b6000610717826106ec565b9050919050565b6107278161070c565b82525050565b6000602082019050610742600083018461071e565b92915050565b600081519050919050565b600082825260208201905092915050565b6000819050602082019050919050565b600061077f826106ec565b9050919050565b61078f81610774565b82525050565b60006107a18383610786565b60208301905092915050565b6000602082019050919050565b60006107c582610748565b6107cf8185610753565b93506107da83610764565b8060005b8381101561080b5781516107f28882610795565b97506107fd836107ad565b9250506001810190506107de565b5085935050505092915050565b6000602082019050818103600083015261083281846107ba565b905092915050565b61084381610774565b82525050565b600060208201905061085e600083018461083a565b92915050565b600080fd5b610872816106b8565b811461087d57600080fd5b50565b60008135905061088f81610869565b92915050565b6000602082840312156108ab576108aa610864565b5b60006108b984828501610880565b91505092915050565b600082825260208201905092915050565b7f596f7520617265206e6f7420746865206d616e61676572000000000000000000600082015250565b60006109096017836108c2565b9150610914826108d3565b602082019050919050565b60006020820190508181036000830152610938816108fc565b9050919050565b7f506c617965727320617265206c657373207468616e2033000000000000000000600082015250565b60006109756017836108c2565b91506109808261093f565b602082019050919050565b600060208201905081810360008301526109a481610968565b9050919050565b7f4e487b7100000000000000000000000000000000000000000000000000000000600052601260045260246000fd5b60006109e5826106b8565b91506109f0836106b8565b925082610a00576109ff6109ab565b5b828206905092915050565b7f4e487b7100000000000000000000000000000000000000000000000000000000600052603260045260246000fd5b7f4e487b7100000000000000000000000000000000000000000000000000000000600052604160045260246000fd5b6000819050919050565b610a84610a7f826106b8565b610a69565b82525050565b6000610a968286610a73565b602082019150610aa68285610a73565b602082019150610ab68284610a73565b60208201915081905094935050505056fea264697066735822122068493f4a9286412406c283eb43fa5843157ca02f738b08b55aa7127ce311849f64736f6c63430008110033",
  "immutableReferences": {},
  "source": "//SPDX-License-Identifier: GPL-3.0\r\n\r\npragma solidity ^0.8.17;\r\n\r\ncontract Lottery {\r\n    address payable[] public players;\r\n    address public manager;\r\n    address payable public winner;\r\n\r\n    constructor() {\r\n        manager = msg.sender;\r\n    }\r\n\r\n    receive() external payable {\r\n        require(msg.value == 0.01 ether);\r\n        players.push(payable(msg.sender));\r\n    }\r\n\r\n    function getBalance() public view returns (uint) {\r\n        require(msg.sender == manager,\"You are not the manager\");\r\n        return address(this).balance;\r\n    }\r\n\r\n    function random() internal view returns (uint) {\r\n        return\r\n            uint(\r\n                keccak256(\r\n                    abi.encodePacked(\r\n                        block.difficulty,\r\n                        block.timestamp,\r\n                        players.length\r\n                    )\r\n                )\r\n            );\r\n    }\r\n\r\n    function pickWinner() public {\r\n        require(msg.sender == manager,\"You are not the manager\");\r\n        require(players.length >= 3,\"Players are less than 3\");\r\n        uint256 r = random();\r\n        uint256 index = r % players.length;\r\n        // setting the winner\r\n        winner = players[index];\r\n        winner.transfer(getBalance());\r\n        players = new address payable[](0);\r\n    }\r\n\r\n    // since its array we have to use memory\r\n    function allPlayers() public view returns (address payable[] memory) {\r\n        return players;\r\n    }\r\n}\r\n\r\n// 0x5f3Caa72ACA5600B00106f410b13f5ace440fcb4\r\n",
  "sourcePath": "D:\\Desktop\\Code\\Block\\Dapp\\lottery\\web3lab\\contracts\\Lottery.sol",
  "compiler": {
    "name": "solc",
    "version": "0.8.17+commit.8df45f5f.Emscripten.clang"
  },
  "schemaVersion": "3.4.11",
  "updatedAt": "2022-11-27T12:10:25.954Z",
  "networkType": "ethereum",
  "devdoc": {
    "kind": "dev",
    "methods": {},
    "version": 1
  },
  "userdoc": {
    "kind": "user",
    "methods": {},
    "version": 1
  }
}